{
  "_format": "hh-sol-artifact-1",
  "contractName": "Achievements",
  "sourceName": "contracts/Achievements.sol",
  "abi": [
    {
      "inputs": [
        {
          "internalType": "uint256",
          "name": "_totalTokenIdCount",
          "type": "uint256"
        },
        {
          "internalType": "string",
          "name": "_signet",
          "type": "string"
        },
        {
          "internalType": "string",
          "name": "_uri",
          "type": "string"
        }
      ],
      "stateMutability": "nonpayable",
      "type": "constructor"
    },
    {
      "anonymous": false,
      "inputs": [
        {
          "indexed": true,
          "internalType": "address",
          "name": "account",
          "type": "address"
        },
        {
          "indexed": true,
          "internalType": "address",
          "name": "operator",
          "type": "address"
        },
        {
          "indexed": false,
          "internalType": "bool",
          "name": "approved",
          "type": "bool"
        }
      ],
      "name": "ApprovalForAll",
      "type": "event"
    },
    {
      "anonymous": false,
      "inputs": [
        {
          "indexed": true,
          "internalType": "address",
          "name": "previousOwner",
          "type": "address"
        },
        {
          "indexed": true,
          "internalType": "address",
          "name": "newOwner",
          "type": "address"
        }
      ],
      "name": "OwnershipTransferred",
      "type": "event"
    },
    {
      "anonymous": false,
      "inputs": [
        {
          "indexed": true,
          "internalType": "address",
          "name": "operator",
          "type": "address"
        },
        {
          "indexed": true,
          "internalType": "address",
          "name": "from",
          "type": "address"
        },
        {
          "indexed": true,
          "internalType": "address",
          "name": "to",
          "type": "address"
        },
        {
          "indexed": false,
          "internalType": "uint256[]",
          "name": "ids",
          "type": "uint256[]"
        },
        {
          "indexed": false,
          "internalType": "uint256[]",
          "name": "values",
          "type": "uint256[]"
        }
      ],
      "name": "TransferBatch",
      "type": "event"
    },
    {
      "anonymous": false,
      "inputs": [
        {
          "indexed": true,
          "internalType": "address",
          "name": "operator",
          "type": "address"
        },
        {
          "indexed": true,
          "internalType": "address",
          "name": "from",
          "type": "address"
        },
        {
          "indexed": true,
          "internalType": "address",
          "name": "to",
          "type": "address"
        },
        {
          "indexed": false,
          "internalType": "uint256",
          "name": "id",
          "type": "uint256"
        },
        {
          "indexed": false,
          "internalType": "uint256",
          "name": "value",
          "type": "uint256"
        }
      ],
      "name": "TransferSingle",
      "type": "event"
    },
    {
      "anonymous": false,
      "inputs": [
        {
          "indexed": false,
          "internalType": "string",
          "name": "value",
          "type": "string"
        },
        {
          "indexed": true,
          "internalType": "uint256",
          "name": "id",
          "type": "uint256"
        }
      ],
      "name": "URI",
      "type": "event"
    },
    {
      "inputs": [
        {
          "internalType": "address",
          "name": "account",
          "type": "address"
        },
        {
          "internalType": "uint256",
          "name": "id",
          "type": "uint256"
        }
      ],
      "name": "balanceOf",
      "outputs": [
        {
          "internalType": "uint256",
          "name": "",
          "type": "uint256"
        }
      ],
      "stateMutability": "view",
      "type": "function"
    },
    {
      "inputs": [
        {
          "internalType": "address[]",
          "name": "accounts",
          "type": "address[]"
        },
        {
          "internalType": "uint256[]",
          "name": "ids",
          "type": "uint256[]"
        }
      ],
      "name": "balanceOfBatch",
      "outputs": [
        {
          "internalType": "uint256[]",
          "name": "",
          "type": "uint256[]"
        }
      ],
      "stateMutability": "view",
      "type": "function"
    },
    {
      "inputs": [
        {
          "internalType": "uint256",
          "name": "id",
          "type": "uint256"
        }
      ],
      "name": "exists",
      "outputs": [
        {
          "internalType": "bool",
          "name": "",
          "type": "bool"
        }
      ],
      "stateMutability": "view",
      "type": "function"
    },
    {
      "inputs": [
        {
          "internalType": "address",
          "name": "account",
          "type": "address"
        },
        {
          "internalType": "address",
          "name": "operator",
          "type": "address"
        }
      ],
      "name": "isApprovedForAll",
      "outputs": [
        {
          "internalType": "bool",
          "name": "",
          "type": "bool"
        }
      ],
      "stateMutability": "view",
      "type": "function"
    },
    {
      "inputs": [
        {
          "internalType": "address",
          "name": "account",
          "type": "address"
        },
        {
          "internalType": "uint256",
          "name": "id",
          "type": "uint256"
        },
        {
          "internalType": "uint256",
          "name": "amount",
          "type": "uint256"
        },
        {
          "internalType": "bytes",
          "name": "data",
          "type": "bytes"
        }
      ],
      "name": "mint",
      "outputs": [],
      "stateMutability": "nonpayable",
      "type": "function"
    },
    {
      "inputs": [
        {
          "internalType": "address",
          "name": "to",
          "type": "address"
        },
        {
          "internalType": "uint256[]",
          "name": "ids",
          "type": "uint256[]"
        },
        {
          "internalType": "uint256[]",
          "name": "amounts",
          "type": "uint256[]"
        },
        {
          "internalType": "bytes",
          "name": "data",
          "type": "bytes"
        }
      ],
      "name": "mintBatch",
      "outputs": [],
      "stateMutability": "nonpayable",
      "type": "function"
    },
    {
      "inputs": [],
      "name": "owner",
      "outputs": [
        {
          "internalType": "address",
          "name": "",
          "type": "address"
        }
      ],
      "stateMutability": "view",
      "type": "function"
    },
    {
      "inputs": [],
      "name": "renounceOwnership",
      "outputs": [],
      "stateMutability": "nonpayable",
      "type": "function"
    },
    {
      "inputs": [
        {
          "internalType": "address",
          "name": "from",
          "type": "address"
        },
        {
          "internalType": "address",
          "name": "to",
          "type": "address"
        },
        {
          "internalType": "uint256[]",
          "name": "ids",
          "type": "uint256[]"
        },
        {
          "internalType": "uint256[]",
          "name": "amounts",
          "type": "uint256[]"
        },
        {
          "internalType": "bytes",
          "name": "data",
          "type": "bytes"
        }
      ],
      "name": "safeBatchTransferFrom",
      "outputs": [],
      "stateMutability": "nonpayable",
      "type": "function"
    },
    {
      "inputs": [
        {
          "internalType": "address",
          "name": "from",
          "type": "address"
        },
        {
          "internalType": "address",
          "name": "to",
          "type": "address"
        },
        {
          "internalType": "uint256",
          "name": "id",
          "type": "uint256"
        },
        {
          "internalType": "uint256",
          "name": "amount",
          "type": "uint256"
        },
        {
          "internalType": "bytes",
          "name": "data",
          "type": "bytes"
        }
      ],
      "name": "safeTransferFrom",
      "outputs": [],
      "stateMutability": "nonpayable",
      "type": "function"
    },
    {
      "inputs": [
        {
          "internalType": "address",
          "name": "operator",
          "type": "address"
        },
        {
          "internalType": "bool",
          "name": "approved",
          "type": "bool"
        }
      ],
      "name": "setApprovalForAll",
      "outputs": [],
      "stateMutability": "nonpayable",
      "type": "function"
    },
    {
      "inputs": [
        {
          "internalType": "string",
          "name": "newuri",
          "type": "string"
        }
      ],
      "name": "setURI",
      "outputs": [],
      "stateMutability": "nonpayable",
      "type": "function"
    },
    {
      "inputs": [],
      "name": "signet",
      "outputs": [
        {
          "internalType": "string",
          "name": "",
          "type": "string"
        }
      ],
      "stateMutability": "view",
      "type": "function"
    },
    {
      "inputs": [
        {
          "internalType": "bytes4",
          "name": "interfaceId",
          "type": "bytes4"
        }
      ],
      "name": "supportsInterface",
      "outputs": [
        {
          "internalType": "bool",
          "name": "",
          "type": "bool"
        }
      ],
      "stateMutability": "view",
      "type": "function"
    },
    {
      "inputs": [
        {
          "internalType": "uint256",
          "name": "",
          "type": "uint256"
        },
        {
          "internalType": "uint256",
          "name": "",
          "type": "uint256"
        }
      ],
      "name": "tokenToAddresses",
      "outputs": [
        {
          "internalType": "address",
          "name": "",
          "type": "address"
        }
      ],
      "stateMutability": "view",
      "type": "function"
    },
    {
      "inputs": [
        {
          "internalType": "uint256",
          "name": "id",
          "type": "uint256"
        }
      ],
      "name": "totalSupply",
      "outputs": [
        {
          "internalType": "uint256",
          "name": "",
          "type": "uint256"
        }
      ],
      "stateMutability": "view",
      "type": "function"
    },
    {
      "inputs": [],
      "name": "totalTokenIdCount",
      "outputs": [
        {
          "internalType": "uint256",
          "name": "",
          "type": "uint256"
        }
      ],
      "stateMutability": "view",
      "type": "function"
    },
    {
      "inputs": [
        {
          "internalType": "address",
          "name": "newOwner",
          "type": "address"
        }
      ],
      "name": "transferOwnership",
      "outputs": [],
      "stateMutability": "nonpayable",
      "type": "function"
    },
    {
      "inputs": [
        {
          "internalType": "uint256",
          "name": "",
          "type": "uint256"
        }
      ],
      "name": "uri",
      "outputs": [
        {
          "internalType": "string",
          "name": "",
          "type": "string"
        }
      ],
      "stateMutability": "view",
      "type": "function"
    }
  ],
  "bytecode": "0x60806040523480156200001157600080fd5b50604051620033cb380380620033cb8339818101604052810190620000379190620002c2565b8062000049816200009360201b60201c565b506200006a6200005e620000af60201b60201c565b620000b760201b60201c565b826005819055508160069080519060200190620000899291906200017d565b5050505062000504565b8060029080519060200190620000ab9291906200017d565b5050565b600033905090565b6000600360009054906101000a900473ffffffffffffffffffffffffffffffffffffffff16905081600360006101000a81548173ffffffffffffffffffffffffffffffffffffffff021916908373ffffffffffffffffffffffffffffffffffffffff1602179055508173ffffffffffffffffffffffffffffffffffffffff168173ffffffffffffffffffffffffffffffffffffffff167f8be0079c531659141344cd1fd0a4f28419497f9722a3daafe3b4186f6b6457e060405160405180910390a35050565b8280546200018b90620003fb565b90600052602060002090601f016020900481019282620001af5760008555620001fb565b82601f10620001ca57805160ff1916838001178555620001fb565b82800160010185558215620001fb579182015b82811115620001fa578251825591602001919060010190620001dd565b5b5090506200020a91906200020e565b5090565b5b80821115620002295760008160009055506001016200020f565b5090565b6000620002446200023e8462000385565b6200035c565b905082815260208101848484011115620002635762000262620004ca565b5b62000270848285620003c5565b509392505050565b600082601f83011262000290576200028f620004c5565b5b8151620002a28482602086016200022d565b91505092915050565b600081519050620002bc81620004ea565b92915050565b600080600060608486031215620002de57620002dd620004d4565b5b6000620002ee86828701620002ab565b935050602084015167ffffffffffffffff811115620003125762000311620004cf565b5b620003208682870162000278565b925050604084015167ffffffffffffffff811115620003445762000343620004cf565b5b620003528682870162000278565b9150509250925092565b6000620003686200037b565b905062000376828262000431565b919050565b6000604051905090565b600067ffffffffffffffff821115620003a357620003a262000496565b5b620003ae82620004d9565b9050602081019050919050565b6000819050919050565b60005b83811015620003e5578082015181840152602081019050620003c8565b83811115620003f5576000848401525b50505050565b600060028204905060018216806200041457607f821691505b602082108114156200042b576200042a62000467565b5b50919050565b6200043c82620004d9565b810181811067ffffffffffffffff821117156200045e576200045d62000496565b5b80604052505050565b7f4e487b7100000000000000000000000000000000000000000000000000000000600052602260045260246000fd5b7f4e487b7100000000000000000000000000000000000000000000000000000000600052604160045260246000fd5b600080fd5b600080fd5b600080fd5b600080fd5b6000601f19601f8301169050919050565b620004f581620003bb565b81146200050157600080fd5b50565b612eb780620005146000396000f3fe608060405234801561001057600080fd5b50600436106101205760003560e01c80634f558e79116100ad578063bd85b03911610071578063bd85b03914610317578063c30588ef14610347578063e985e9c514610365578063f242432a14610395578063f2fde38b146103b157610120565b80634f558e7914610287578063715018a6146102b7578063731133e9146102c15780638da5cb5b146102dd578063a22cb465146102fb57610120565b80630e89341c116100f45780630e89341c146101bf5780631bcd5eeb146101ef5780631f7fdffa1461021f5780632eb2c2d61461023b5780634e1273f41461025757610120565b8062fdd58e1461012557806301ffc9a71461015557806302229e571461018557806302fe5305146101a3575b600080fd5b61013f600480360381019061013a9190611eb0565b6103cd565b60405161014c9190612630565b60405180910390f35b61016f600480360381019061016a9190611feb565b610496565b60405161017c91906124b3565b60405180910390f35b61018d610578565b60405161019a9190612630565b60405180910390f35b6101bd60048036038101906101b89190612045565b61057e565b005b6101d960048036038101906101d4919061208e565b610606565b6040516101e691906124ce565b60405180910390f35b610209600480360381019061020491906120bb565b61069a565b604051610216919061237d565b60405180910390f35b61023960048036038101906102349190611db5565b6106e8565b005b61025560048036038101906102509190611c4f565b6107f4565b005b610271600480360381019061026c9190611f73565b61083c565b60405161027e919061245a565b60405180910390f35b6102a1600480360381019061029c919061208e565b610955565b6040516102ae91906124b3565b60405180910390f35b6102bf610969565b005b6102db60048036038101906102d69190611ef0565b6109f1565b005b6102e5610ac3565b6040516102f2919061237d565b60405180910390f35b61031560048036038101906103109190611e70565b610aed565b005b610331600480360381019061032c919061208e565b610b32565b60405161033e9190612630565b60405180910390f35b61034f610b4f565b60405161035c91906124ce565b60405180910390f35b61037f600480360381019061037a9190611c0f565b610bdd565b60405161038c91906124b3565b60405180910390f35b6103af60048036038101906103aa9190611d1e565b610c71565b005b6103cb60048036038101906103c69190611be2565b610cb9565b005b60008073ffffffffffffffffffffffffffffffffffffffff168373ffffffffffffffffffffffffffffffffffffffff16141561043e576040517f08c379a000000000000000000000000000000000000000000000000000000000815260040161043590612530565b60405180910390fd5b60008083815260200190815260200160002060008473ffffffffffffffffffffffffffffffffffffffff1673ffffffffffffffffffffffffffffffffffffffff16815260200190815260200160002054905092915050565b60007fd9b67a26000000000000000000000000000000000000000000000000000000007bffffffffffffffffffffffffffffffffffffffffffffffffffffffff1916827bffffffffffffffffffffffffffffffffffffffffffffffffffffffff1916148061056157507f0e89341c000000000000000000000000000000000000000000000000000000007bffffffffffffffffffffffffffffffffffffffffffffffffffffffff1916827bffffffffffffffffffffffffffffffffffffffffffffffffffffffff1916145b80610571575061057082610db1565b5b9050919050565b60055481565b610586610e1b565b73ffffffffffffffffffffffffffffffffffffffff166105a4610ac3565b73ffffffffffffffffffffffffffffffffffffffff16146105fa576040517f08c379a00000000000000000000000000000000000000000000000000000000081526004016105f190612590565b60405180910390fd5b61060381610e23565b50565b60606002805461061590612904565b80601f016020809104026020016040519081016040528092919081815260200182805461064190612904565b801561068e5780601f106106635761010080835404028352916020019161068e565b820191906000526020600020905b81548152906001019060200180831161067157829003601f168201915b50505050509050919050565b600760205281600052604060002081815481106106b657600080fd5b906000526020600020016000915091509054906101000a900473ffffffffffffffffffffffffffffffffffffffff1681565b60005b83518110156107e157600161070086836103cd565b10610740576040517f08c379a0000000000000000000000000000000000000000000000000000000008152600401610737906125b0565b60405180910390fd5b6007600085838151811061075757610756612a0e565b5b60200260200101518152602001908152602001600020859080600181540180825580915050600190039060005260206000200160009091909190916101000a81548173ffffffffffffffffffffffffffffffffffffffff021916908373ffffffffffffffffffffffffffffffffffffffff16021790555080806107d990612967565b9150506106eb565b506107ee84848484610e3d565b50505050565b6000610835576040517f08c379a000000000000000000000000000000000000000000000000000000000815260040161082c90612570565b60405180910390fd5b5050505050565b60608151835114610882576040517f08c379a0000000000000000000000000000000000000000000000000000000008152600401610879906125d0565b60405180910390fd5b6000835167ffffffffffffffff81111561089f5761089e612a3d565b5b6040519080825280602002602001820160405280156108cd5781602001602082028036833780820191505090505b50905060005b845181101561094a5761091a8582815181106108f2576108f1612a0e565b5b602002602001015185838151811061090d5761090c612a0e565b5b60200260200101516103cd565b82828151811061092d5761092c612a0e565b5b6020026020010181815250508061094390612967565b90506108d3565b508091505092915050565b60008061096183610b32565b119050919050565b610971610e1b565b73ffffffffffffffffffffffffffffffffffffffff1661098f610ac3565b73ffffffffffffffffffffffffffffffffffffffff16146109e5576040517f08c379a00000000000000000000000000000000000000000000000000000000081526004016109dc90612590565b60405180910390fd5b6109ef600061105b565b565b60016109fd85856103cd565b10610a3d576040517f08c379a0000000000000000000000000000000000000000000000000000000008152600401610a34906125b0565b60405180910390fd5b60076000848152602001908152602001600020849080600181540180825580915050600190039060005260206000200160009091909190916101000a81548173ffffffffffffffffffffffffffffffffffffffff021916908373ffffffffffffffffffffffffffffffffffffffff160217905550610abd84848484611121565b50505050565b6000600360009054906101000a900473ffffffffffffffffffffffffffffffffffffffff16905090565b6000610b2e576040517f08c379a0000000000000000000000000000000000000000000000000000000008152600401610b2590612570565b60405180910390fd5b5050565b600060046000838152602001908152602001600020549050919050565b60068054610b5c90612904565b80601f0160208091040260200160405190810160405280929190818152602001828054610b8890612904565b8015610bd55780601f10610baa57610100808354040283529160200191610bd5565b820191906000526020600020905b815481529060010190602001808311610bb857829003601f168201915b505050505081565b6000600160008473ffffffffffffffffffffffffffffffffffffffff1673ffffffffffffffffffffffffffffffffffffffff16815260200190815260200160002060008373ffffffffffffffffffffffffffffffffffffffff1673ffffffffffffffffffffffffffffffffffffffff16815260200190815260200160002060009054906101000a900460ff16905092915050565b6000610cb2576040517f08c379a0000000000000000000000000000000000000000000000000000000008152600401610ca990612570565b60405180910390fd5b5050505050565b610cc1610e1b565b73ffffffffffffffffffffffffffffffffffffffff16610cdf610ac3565b73ffffffffffffffffffffffffffffffffffffffff1614610d35576040517f08c379a0000000000000000000000000000000000000000000000000000000008152600401610d2c90612590565b60405180910390fd5b600073ffffffffffffffffffffffffffffffffffffffff168173ffffffffffffffffffffffffffffffffffffffff161415610da5576040517f08c379a0000000000000000000000000000000000000000000000000000000008152600401610d9c90612550565b60405180910390fd5b610dae8161105b565b50565b60007f01ffc9a7000000000000000000000000000000000000000000000000000000007bffffffffffffffffffffffffffffffffffffffffffffffffffffffff1916827bffffffffffffffffffffffffffffffffffffffffffffffffffffffff1916149050919050565b600033905090565b8060029080519060200190610e399291906118ba565b5050565b600073ffffffffffffffffffffffffffffffffffffffff168473ffffffffffffffffffffffffffffffffffffffff161415610ead576040517f08c379a0000000000000000000000000000000000000000000000000000000008152600401610ea490612610565b60405180910390fd5b8151835114610ef1576040517f08c379a0000000000000000000000000000000000000000000000000000000008152600401610ee8906125f0565b60405180910390fd5b6000610efb610e1b565b9050610f0c816000878787876112b7565b60005b8451811015610fc557838181518110610f2b57610f2a612a0e565b5b6020026020010151600080878481518110610f4957610f48612a0e565b5b6020026020010151815260200190815260200160002060008873ffffffffffffffffffffffffffffffffffffffff1673ffffffffffffffffffffffffffffffffffffffff1681526020019081526020016000206000828254610fab91906127c4565b925050819055508080610fbd90612967565b915050610f0f565b508473ffffffffffffffffffffffffffffffffffffffff16600073ffffffffffffffffffffffffffffffffffffffff168273ffffffffffffffffffffffffffffffffffffffff167f4a39dc06d4c0dbc64b70af90fd698a233a518aa5d07e595d983b8c0526c8f7fb878760405161103d92919061247c565b60405180910390a4611054816000878787876112cd565b5050505050565b6000600360009054906101000a900473ffffffffffffffffffffffffffffffffffffffff16905081600360006101000a81548173ffffffffffffffffffffffffffffffffffffffff021916908373ffffffffffffffffffffffffffffffffffffffff1602179055508173ffffffffffffffffffffffffffffffffffffffff168173ffffffffffffffffffffffffffffffffffffffff167f8be0079c531659141344cd1fd0a4f28419497f9722a3daafe3b4186f6b6457e060405160405180910390a35050565b600073ffffffffffffffffffffffffffffffffffffffff168473ffffffffffffffffffffffffffffffffffffffff161415611191576040517f08c379a000000000000000000000000000000000000000000000000000000000815260040161118890612610565b60405180910390fd5b600061119b610e1b565b90506111bc816000876111ad886114b4565b6111b6886114b4565b876112b7565b8260008086815260200190815260200160002060008773ffffffffffffffffffffffffffffffffffffffff1673ffffffffffffffffffffffffffffffffffffffff168152602001908152602001600020600082825461121b91906127c4565b925050819055508473ffffffffffffffffffffffffffffffffffffffff16600073ffffffffffffffffffffffffffffffffffffffff168273ffffffffffffffffffffffffffffffffffffffff167fc3d58168c5ae7397731d063d5bbf3d657854427343f4c083240f7aacaa2d0f62878760405161129992919061264b565b60405180910390a46112b08160008787878761152e565b5050505050565b6112c5868686868686611715565b505050505050565b6112ec8473ffffffffffffffffffffffffffffffffffffffff1661188f565b156114ac578373ffffffffffffffffffffffffffffffffffffffff1663bc197c8187878686866040518663ffffffff1660e01b8152600401611332959493929190612398565b602060405180830381600087803b15801561134c57600080fd5b505af192505050801561137d57506040513d601f19601f8201168201806040525081019061137a9190612018565b60015b61142357611389612a6c565b806308c379a014156113e6575061139e612d8f565b806113a957506113e8565b806040517f08c379a00000000000000000000000000000000000000000000000000000000081526004016113dd91906124ce565b60405180910390fd5b505b6040517f08c379a000000000000000000000000000000000000000000000000000000000815260040161141a906124f0565b60405180910390fd5b63bc197c8160e01b7bffffffffffffffffffffffffffffffffffffffffffffffffffffffff1916817bffffffffffffffffffffffffffffffffffffffffffffffffffffffff1916146114aa576040517f08c379a00000000000000000000000000000000000000000000000000000000081526004016114a190612510565b60405180910390fd5b505b505050505050565b60606000600167ffffffffffffffff8111156114d3576114d2612a3d565b5b6040519080825280602002602001820160405280156115015781602001602082028036833780820191505090505b509050828160008151811061151957611518612a0e565b5b60200260200101818152505080915050919050565b61154d8473ffffffffffffffffffffffffffffffffffffffff1661188f565b1561170d578373ffffffffffffffffffffffffffffffffffffffff1663f23a6e6187878686866040518663ffffffff1660e01b8152600401611593959493929190612400565b602060405180830381600087803b1580156115ad57600080fd5b505af19250505080156115de57506040513d601f19601f820116820180604052508101906115db9190612018565b60015b611684576115ea612a6c565b806308c379a0141561164757506115ff612d8f565b8061160a5750611649565b806040517f08c379a000000000000000000000000000000000000000000000000000000000815260040161163e91906124ce565b60405180910390fd5b505b6040517f08c379a000000000000000000000000000000000000000000000000000000000815260040161167b906124f0565b60405180910390fd5b63f23a6e6160e01b7bffffffffffffffffffffffffffffffffffffffffffffffffffffffff1916817bffffffffffffffffffffffffffffffffffffffffffffffffffffffff19161461170b576040517f08c379a000000000000000000000000000000000000000000000000000000000815260040161170290612510565b60405180910390fd5b505b505050505050565b6117238686868686866118b2565b600073ffffffffffffffffffffffffffffffffffffffff168573ffffffffffffffffffffffffffffffffffffffff1614156117d55760005b83518110156117d35782818151811061177757611776612a0e565b5b60200260200101516004600086848151811061179657611795612a0e565b5b6020026020010151815260200190815260200160002060008282546117bb91906127c4565b92505081905550806117cc90612967565b905061175b565b505b600073ffffffffffffffffffffffffffffffffffffffff168473ffffffffffffffffffffffffffffffffffffffff1614156118875760005b83518110156118855782818151811061182957611828612a0e565b5b60200260200101516004600086848151811061184857611847612a0e565b5b60200260200101518152602001908152602001600020600082825461186d919061281a565b925050819055508061187e90612967565b905061180d565b505b505050505050565b6000808273ffffffffffffffffffffffffffffffffffffffff163b119050919050565b505050505050565b8280546118c690612904565b90600052602060002090601f0160209004810192826118e8576000855561192f565b82601f1061190157805160ff191683800117855561192f565b8280016001018555821561192f579182015b8281111561192e578251825591602001919060010190611913565b5b50905061193c9190611940565b5090565b5b80821115611959576000816000905550600101611941565b5090565b600061197061196b84612699565b612674565b9050808382526020820190508285602086028201111561199357611992612a93565b5b60005b858110156119c357816119a98882611ac1565b845260208401935060208301925050600181019050611996565b5050509392505050565b60006119e06119db846126c5565b612674565b90508083825260208201905082856020860282011115611a0357611a02612a93565b5b60005b85811015611a335781611a198882611bcd565b845260208401935060208301925050600181019050611a06565b5050509392505050565b6000611a50611a4b846126f1565b612674565b905082815260208101848484011115611a6c57611a6b612a98565b5b611a778482856128c2565b509392505050565b6000611a92611a8d84612722565b612674565b905082815260208101848484011115611aae57611aad612a98565b5b611ab98482856128c2565b509392505050565b600081359050611ad081612e25565b92915050565b600082601f830112611aeb57611aea612a8e565b5b8135611afb84826020860161195d565b91505092915050565b600082601f830112611b1957611b18612a8e565b5b8135611b298482602086016119cd565b91505092915050565b600081359050611b4181612e3c565b92915050565b600081359050611b5681612e53565b92915050565b600081519050611b6b81612e53565b92915050565b600082601f830112611b8657611b85612a8e565b5b8135611b96848260208601611a3d565b91505092915050565b600082601f830112611bb457611bb3612a8e565b5b8135611bc4848260208601611a7f565b91505092915050565b600081359050611bdc81612e6a565b92915050565b600060208284031215611bf857611bf7612aa2565b5b6000611c0684828501611ac1565b91505092915050565b60008060408385031215611c2657611c25612aa2565b5b6000611c3485828601611ac1565b9250506020611c4585828601611ac1565b9150509250929050565b600080600080600060a08688031215611c6b57611c6a612aa2565b5b6000611c7988828901611ac1565b9550506020611c8a88828901611ac1565b945050604086013567ffffffffffffffff811115611cab57611caa612a9d565b5b611cb788828901611b04565b935050606086013567ffffffffffffffff811115611cd857611cd7612a9d565b5b611ce488828901611b04565b925050608086013567ffffffffffffffff811115611d0557611d04612a9d565b5b611d1188828901611b71565b9150509295509295909350565b600080600080600060a08688031215611d3a57611d39612aa2565b5b6000611d4888828901611ac1565b9550506020611d5988828901611ac1565b9450506040611d6a88828901611bcd565b9350506060611d7b88828901611bcd565b925050608086013567ffffffffffffffff811115611d9c57611d9b612a9d565b5b611da888828901611b71565b9150509295509295909350565b60008060008060808587031215611dcf57611dce612aa2565b5b6000611ddd87828801611ac1565b945050602085013567ffffffffffffffff811115611dfe57611dfd612a9d565b5b611e0a87828801611b04565b935050604085013567ffffffffffffffff811115611e2b57611e2a612a9d565b5b611e3787828801611b04565b925050606085013567ffffffffffffffff811115611e5857611e57612a9d565b5b611e6487828801611b71565b91505092959194509250565b60008060408385031215611e8757611e86612aa2565b5b6000611e9585828601611ac1565b9250506020611ea685828601611b32565b9150509250929050565b60008060408385031215611ec757611ec6612aa2565b5b6000611ed585828601611ac1565b9250506020611ee685828601611bcd565b9150509250929050565b60008060008060808587031215611f0a57611f09612aa2565b5b6000611f1887828801611ac1565b9450506020611f2987828801611bcd565b9350506040611f3a87828801611bcd565b925050606085013567ffffffffffffffff811115611f5b57611f5a612a9d565b5b611f6787828801611b71565b91505092959194509250565b60008060408385031215611f8a57611f89612aa2565b5b600083013567ffffffffffffffff811115611fa857611fa7612a9d565b5b611fb485828601611ad6565b925050602083013567ffffffffffffffff811115611fd557611fd4612a9d565b5b611fe185828601611b04565b9150509250929050565b60006020828403121561200157612000612aa2565b5b600061200f84828501611b47565b91505092915050565b60006020828403121561202e5761202d612aa2565b5b600061203c84828501611b5c565b91505092915050565b60006020828403121561205b5761205a612aa2565b5b600082013567ffffffffffffffff81111561207957612078612a9d565b5b61208584828501611b9f565b91505092915050565b6000602082840312156120a4576120a3612aa2565b5b60006120b284828501611bcd565b91505092915050565b600080604083850312156120d2576120d1612aa2565b5b60006120e085828601611bcd565b92505060206120f185828601611bcd565b9150509250929050565b6000612107838361235f565b60208301905092915050565b61211c8161284e565b82525050565b600061212d82612763565b6121378185612791565b935061214283612753565b8060005b8381101561217357815161215a88826120fb565b975061216583612784565b925050600181019050612146565b5085935050505092915050565b61218981612860565b82525050565b600061219a8261276e565b6121a481856127a2565b93506121b48185602086016128d1565b6121bd81612aa7565b840191505092915050565b60006121d382612779565b6121dd81856127b3565b93506121ed8185602086016128d1565b6121f681612aa7565b840191505092915050565b600061220e6034836127b3565b915061221982612ac5565b604082019050919050565b60006122316028836127b3565b915061223c82612b14565b604082019050919050565b6000612254602b836127b3565b915061225f82612b63565b604082019050919050565b60006122776026836127b3565b915061228282612bb2565b604082019050919050565b600061229a6038836127b3565b91506122a582612c01565b604082019050919050565b60006122bd6020836127b3565b91506122c882612c50565b602082019050919050565b60006122e0601b836127b3565b91506122eb82612c79565b602082019050919050565b60006123036029836127b3565b915061230e82612ca2565b604082019050919050565b60006123266028836127b3565b915061233182612cf1565b604082019050919050565b60006123496021836127b3565b915061235482612d40565b604082019050919050565b612368816128b8565b82525050565b612377816128b8565b82525050565b60006020820190506123926000830184612113565b92915050565b600060a0820190506123ad6000830188612113565b6123ba6020830187612113565b81810360408301526123cc8186612122565b905081810360608301526123e08185612122565b905081810360808301526123f4818461218f565b90509695505050505050565b600060a0820190506124156000830188612113565b6124226020830187612113565b61242f604083018661236e565b61243c606083018561236e565b818103608083015261244e818461218f565b90509695505050505050565b600060208201905081810360008301526124748184612122565b905092915050565b600060408201905081810360008301526124968185612122565b905081810360208301526124aa8184612122565b90509392505050565b60006020820190506124c86000830184612180565b92915050565b600060208201905081810360008301526124e881846121c8565b905092915050565b6000602082019050818103600083015261250981612201565b9050919050565b6000602082019050818103600083015261252981612224565b9050919050565b6000602082019050818103600083015261254981612247565b9050919050565b600060208201905081810360008301526125698161226a565b9050919050565b600060208201905081810360008301526125898161228d565b9050919050565b600060208201905081810360008301526125a9816122b0565b9050919050565b600060208201905081810360008301526125c9816122d3565b9050919050565b600060208201905081810360008301526125e9816122f6565b9050919050565b6000602082019050818103600083015261260981612319565b9050919050565b600060208201905081810360008301526126298161233c565b9050919050565b6000602082019050612645600083018461236e565b92915050565b6000604082019050612660600083018561236e565b61266d602083018461236e565b9392505050565b600061267e61268f565b905061268a8282612936565b919050565b6000604051905090565b600067ffffffffffffffff8211156126b4576126b3612a3d565b5b602082029050602081019050919050565b600067ffffffffffffffff8211156126e0576126df612a3d565b5b602082029050602081019050919050565b600067ffffffffffffffff82111561270c5761270b612a3d565b5b61271582612aa7565b9050602081019050919050565b600067ffffffffffffffff82111561273d5761273c612a3d565b5b61274682612aa7565b9050602081019050919050565b6000819050602082019050919050565b600081519050919050565b600081519050919050565b600081519050919050565b6000602082019050919050565b600082825260208201905092915050565b600082825260208201905092915050565b600082825260208201905092915050565b60006127cf826128b8565b91506127da836128b8565b9250827fffffffffffffffffffffffffffffffffffffffffffffffffffffffffffffffff0382111561280f5761280e6129b0565b5b828201905092915050565b6000612825826128b8565b9150612830836128b8565b925082821015612843576128426129b0565b5b828203905092915050565b600061285982612898565b9050919050565b60008115159050919050565b60007fffffffff0000000000000000000000000000000000000000000000000000000082169050919050565b600073ffffffffffffffffffffffffffffffffffffffff82169050919050565b6000819050919050565b82818337600083830152505050565b60005b838110156128ef5780820151818401526020810190506128d4565b838111156128fe576000848401525b50505050565b6000600282049050600182168061291c57607f821691505b602082108114156129305761292f6129df565b5b50919050565b61293f82612aa7565b810181811067ffffffffffffffff8211171561295e5761295d612a3d565b5b80604052505050565b6000612972826128b8565b91507fffffffffffffffffffffffffffffffffffffffffffffffffffffffffffffffff8214156129a5576129a46129b0565b5b600182019050919050565b7f4e487b7100000000000000000000000000000000000000000000000000000000600052601160045260246000fd5b7f4e487b7100000000000000000000000000000000000000000000000000000000600052602260045260246000fd5b7f4e487b7100000000000000000000000000000000000000000000000000000000600052603260045260246000fd5b7f4e487b7100000000000000000000000000000000000000000000000000000000600052604160045260246000fd5b600060033d1115612a8b5760046000803e612a88600051612ab8565b90505b90565b600080fd5b600080fd5b600080fd5b600080fd5b600080fd5b6000601f19601f8301169050919050565b60008160e01c9050919050565b7f455243313135353a207472616e7366657220746f206e6f6e204552433131353560008201527f526563656976657220696d706c656d656e746572000000000000000000000000602082015250565b7f455243313135353a204552433131353552656365697665722072656a6563746560008201527f6420746f6b656e73000000000000000000000000000000000000000000000000602082015250565b7f455243313135353a2062616c616e636520717565727920666f7220746865207a60008201527f65726f2061646472657373000000000000000000000000000000000000000000602082015250565b7f4f776e61626c653a206e6577206f776e657220697320746865207a65726f206160008201527f6464726573730000000000000000000000000000000000000000000000000000602082015250565b7f46756e6374696f6e2063616c6c206e6f74207065726d697474656420666f722060008201527f6e6f6e2d7472616e736665727261626c6520746f6b656e730000000000000000602082015250565b7f4f776e61626c653a2063616c6c6572206973206e6f7420746865206f776e6572600082015250565b7f416368696576656d656e7420616c726561647920636c61696d65640000000000600082015250565b7f455243313135353a206163636f756e747320616e6420696473206c656e67746860008201527f206d69736d617463680000000000000000000000000000000000000000000000602082015250565b7f455243313135353a2069647320616e6420616d6f756e7473206c656e6774682060008201527f6d69736d61746368000000000000000000000000000000000000000000000000602082015250565b7f455243313135353a206d696e7420746f20746865207a65726f2061646472657360008201527f7300000000000000000000000000000000000000000000000000000000000000602082015250565b600060443d1015612d9f57612e22565b612da761268f565b60043d036004823e80513d602482011167ffffffffffffffff82111715612dcf575050612e22565b808201805167ffffffffffffffff811115612ded5750505050612e22565b80602083010160043d038501811115612e0a575050505050612e22565b612e1982602001850186612936565b82955050505050505b90565b612e2e8161284e565b8114612e3957600080fd5b50565b612e4581612860565b8114612e5057600080fd5b50565b612e5c8161286c565b8114612e6757600080fd5b50565b612e73816128b8565b8114612e7e57600080fd5b5056fea26469706673582212205bcd23527441eb36e3b13d1d13105e5d82729068a440cd830697e2ffecde89e964736f6c63430008070033",
  "linkReferences": {},
  "deployedLinkReferences": {}
}